:100000000C94A7000C94C4000C94C4000C94C4007D
:100010000C94C4000C94C4000C94C4000C94C40050
:100020000C94C4000C94ED140C94C4000C94C40003
:100030000C94C4000C94C4000C94C4000C94C40030
:100040000C94C4000C94C4000C94C4000C94C40020
:100050000C94C40000407A10F35A00A0724E1809A4
:100060000010A5D4E80000E87648170000E40B541F
:10007000020000CA9A3B000000E1F50500008096EE
:100080009800000040420F000000A0860100000020
:10009000102700000000E8030000000064000000DA
:1000A00000000A00000000000100000000002C76A3
:1000B000D888DC674F0823DFC1DFAE59E1B1B796BE
:1000C000E5E3E453C63AE651997696E8E6C284261B
:1000D000EB898C9B62ED407C6FFCEFBC9C9F40F2F7
:1000E000BAA56FA5F490055A2AF75C936B6CF96773
:1000F0006DC11BFCE0E40D47FEF520E6B500D0ED38
:10010000902E0300943577050080841E080000209F
:100110004E0A000000C80C333333330F986E12833D
:100120001141EF8D2114893BE65516CFFEE6DB1811
:10013000D1844B381BF77C1D901DA4BBE4242032D6
:1001400084725E228100C9F124ECA1E53D271124CF
:100150001FBECFE5D8E0DEBFCDBF11E0A0E6B0E026
:10016000ECE7F5E302C005900D92AC3BB107D9F77F
:1001700011E0ACEBB1E001C01D92A03CB107E1F78A
:100180000E940D140C94BC1A0C940000EF92FF9284
:100190000F931F937B018C0120E030E040E05FE48F
:1001A0000E94720488238CF0C801B70120E030E07F
:1001B00040E05FE40E943E020E9460059B01AC01AA
:1001C000205030404040504806C0C801B7010E944E
:1001D00060059B01AC01B901CA011F910F91FF900D
:1001E000EF900895A0E0B0E0E8EFF0E00C942A185A
:1001F000DC012B01FA019C91923008F439C1EB012A
:100200008881823008F433C1943069F4843009F075
:100210002FC111969C9111978981981709F428C1D3
:10022000ACE6B0E025C1843009F421C18230A9F4E4
:10023000923009F01DC19A01AD0188E0EA010990F0
:10024000AE01E90109929E018150C1F7E201898165
:1002500011969C918923818308C1923009F407C1CA
:1002600012962D903C901397EB018A819B811496F6
:10027000AD90BD90CD90DC901797EC80FD800E8105
:100280001F819101281B390BB90137FF04C0662774
:100290007727621B730B603271050CF061C0121678
:1002A00013066CF537014801062E04C09694879416
:1002B000779467940A94D2F721E030E040E050E070
:1002C00004C0220F331F441F551F6A95D2F72150D7
:1002D0003040404050402E213F21402351232115E2
:1002E00031054105510521F021E030E040E050E0CA
:1002F00079018A01E628F728082919293CC0232B0F
:10030000D1F1260E371E35014601062E04C0969403
:100310008794779467940A94D2F721E030E040E024
:1003200050E004C0220F331F441F551F6A95D2F7B7
:1003300021503040404050402A213B214C215D213A
:10034000211531054105510521F021E030E040E063
:1003500050E059016A01A628B728C828D9280BC03F
:10036000821593052CF01C01AA24BB24650103C04F
:10037000EE24FF24870111969C91D20111968C9155
:10038000981709F445C0992339F0A80197012A1953
:100390003B094C095D0906C0A60195012E193F09CC
:1003A000400B510B57FD08C01182338222822483F7
:1003B0003583468357831DC081E081833382228247
:1003C00088279927DC01821B930BA40BB50B848330
:1003D0009583A683B7830DC0220F331F441F551F7B
:1003E0002483358346835783828193810197938346
:1003F00082832481358146815781DA01C9010197C1
:10040000A109B1098F5F9F4FAF4FBF4328F30BC0C6
:10041000918333822282EA0CFB1C0C1D1D1DE48299
:10042000F5820683178383E08083248135814681AA
:10043000578157FF1AC0C901AA2797FDA095BA2F67
:1004400081709070A070B07056954795379527953C
:10045000822B932BA42BB52B84839583A683B78300
:1004600082819381019693838283DF0101C0D2014F
:10047000CD01CDB7DEB7E2E10C944618A0E2B0E0C2
:10048000E4E4F2E00C94361869837A838B839C83CE
:100490002D833E834F835887E9E0EE2EF12CEC0E3E
:1004A000FD1ECE010196B7010E94D8068E010F5E97
:1004B0001F4FCE010596B8010E94D8068A8991E0A7
:1004C00089278A8BC701B801AE01475E5F4F0E9442
:1004D000F2000E940306A096E6E00C945218A0E2F7
:1004E000B0E0E5E7F2E00C94361869837A838B83F9
:1004F0009C832D833E834F835887F9E0EF2EF12CA8
:10050000EC0EFD1ECE010196B7010E94D8068E01A9
:100510000F5E1F4FCE010596B8010E94D806C70195
:10052000B801AE01475E5F4F0E94F2000E940306D1
:10053000A096E6E00C945218A0E2B0E0E2EAF2E005
:100540000C942A1869837A838B839C832D833E8342
:100550004F835887CE010196BE01675F7F4F0E948F
:10056000D806CE010596BE016F5E7F4F0E94D80669
:100570009985923088F089898230C8F0943019F4D6
:10058000823051F404C0843029F4923081F48CE636
:1005900090E0C6C0923049F420E09A858A89981389
:1005A00021E02A87CE010996BBC0823049F420E0C1
:1005B0009A858A89981321E02A8BCE014196B0C092
:1005C0002D843E844F8458886D887E888F88988CCF
:1005D000EE24FF248701AA24BB24650140E050E0FB
:1005E00060E070E0E0E0F0E0C10181709070892B84
:1005F000E9F0E60CF71C081D191D9A01AB012A0D44
:100600003B1D4C1D5D1D80E090E0A0E0B0E0E614D5
:10061000F7040805190520F481E090E0A0E0B0E0BF
:10062000BA01A901480F591F6A1F7B1FAA0CBB1CE6
:10063000CC1CDD1C97FE08C081E090E0A0E0B0E09B
:10064000A82AB92ACA2ADB2A3196E032F10549F0F4
:10065000660C771C881C991C5694479437942794F1
:10066000C3CFFA85EA892B893C898B859C85280F25
:10067000391F2E5F3F4F17C0CA0181709070892BC0
:1006800061F016950795F794E79480E090E0A0E07C
:10069000B0E8E82AF92A0A2B1B2B7695679557951F
:1006A00047952F5F3F4F77FDE7CF0CC0440F551F95
:1006B000661F771F17FD4160EE0CFF1C001F111F06
:1006C00021503040403090E0590790E0690790E4B5
:1006D000790760F32B8F3C8FDB01CA018F77907015
:1006E000A070B07080349105A105B10561F447FD9B
:1006F0000AC0E114F1040105110529F0405C5F4FC7
:100700006F4F7F4F40781A8EFE1711F081E08A8F6D
:100710004D8F5E8F6F8F78A383E0898FCE014996CE
:100720000E940306A096E2E10C944618A8E1B0E00E
:10073000ECE9F3E00C94321869837A838B839C8311
:100740002D833E834F835887B9E0EB2EF12CEC0EBE
:10075000FD1ECE010196B7010E94D8068E010F5EE4
:100760001F4FCE010596B8010E94D8062985223078
:1007700008F47EC03989323010F4B8017CC08A8513
:100780009A8989278A87243011F0223031F423177F
:1007900009F06EC06CE670E06EC0343039F41D862E
:1007A0001E861F86188A1C861B8604C0323021F4E0
:1007B00084E08987B7015FC02B853C858B899C8944
:1007C000281B390B3C872B87ED84FE840F85188905
:1007D000AD88BE88CF88D88CEA14FB040C051D05B3
:1007E00040F4EE0CFF1C001F111F215030403C87CD
:1007F0002B8720E030E040E050E080E090E0A0E097
:10080000B0E460E070E0EA14FB040C051D0540F064
:10081000282B392B4A2B5B2BEA18FB080C091D09E6
:10082000B695A79597958795EE0CFF1C001F111F95
:100830006F5F7F4F6F31710531F7DA01C9018F7733
:100840009070A070B07080349105A105B10561F47D
:1008500027FD0AC0E114F1040105110529F0205C0F
:100860003F4F4F4F5F4F20782D873E874F87588BE4
:10087000BE01675F7F4FCB010E9403066896EAE0E6
:100880000C944E18A8E1B0E0E8E4F4E00C943618BB
:1008900069837A838B839C832D833E834F83588720
:1008A00089E0E82EF12CEC0EFD1ECE010196B70179
:1008B0000E94D8068E010F5E1F4FCE010596B8012B
:1008C0000E94D8068985823040F08989823028F0DC
:1008D000C701B8010E94500701C08FEF6896E6E09B
:1008E0000C945218A8E1B0E0E8E7F4E00C94361854
:1008F00069837A838B839C832D833E834F835887C0
:1009000089E0E82EF12CEC0EFD1ECE010196B70118
:100910000E94D8068E010F5E1F4FCE010596B801CA
:100920000E94D8068985823040F08989823028F07B
:10093000C701B8010E94500701C08FEF6896E6E03A
:100940000C945218A8E1B0E0E8EAF4E00C943618F0
:1009500069837A838B839C832D833E834F8358875F
:1009600089E0E82EF12CEC0EFD1ECE010196B701B8
:100970000E94D8068E010F5E1F4FCE010596B8016A
:100980000E94D8068985823040F08989823028F01B
:10099000C701B8010E94500701C081E06896E6E0F7
:1009A0000C945218A8E1B0E0E8EDF4E00C9436188D
:1009B00069837A838B839C832D833E834F835887FF
:1009C00089E0E82EF12CEC0EFD1ECE010196B70158
:1009D0000E94D8068E010F5E1F4FCE010596B8010A
:1009E0000E94D8068985823040F08989823028F0BB
:1009F000C701B8010E94500701C081E06896E6E097
:100A00000C945218A8E0B0E0E8E0F5E00C9433183C
:100A10009B01AC0183E08983DA01C9018827B7FD16
:100A200083959927AA27BB27B82E211531054105A3
:100A3000510519F482E089833AC08823A9F0203057
:100A400080E0380780E0480780E8580729F460E034
:100A500070E080E09FEC30C0EE24FF248701E21AB2
:100A6000F30A040B150B02C079018A018EE1C82E2E
:100A7000D12CDC82CB82ED82FE820F831887C801E5
:100A8000B7010E94B40501971816190684F4082EC0
:100A900004C0EE0CFF1C001F111F0A94D2F7ED8258
:100AA000FE820F831887C81AD90ADC82CB82BA82E9
:100AB000CE0101960E9403062896E9E00C944F1897
:100AC000ACE0B0E0E6E6F5E00C943A1869837A838E
:100AD0008B839C83CE010196BE016B5F7F4F0E948A
:100AE000D8068D81823061F1823050F1843021F45A
:100AF0008E81882351F12EC02F81388537FD20C08B
:100B00006E812F3131051CF06623F9F023C08EE190
:100B100090E0821B930B29853A854B855C8504C048
:100B200056954795379527958A95D2F76623B1F064
:100B300050954095309521953F4F4F4F5F4F0EC0D8
:100B400020E030E040E050E009C02FEF3FEF4FEFF2
:100B50005FE704C020E030E040E050E8B901CA019E
:100B60002C96E2E00C945618EF92FF920F931F938D
:100B70007B018C0180E0E81680E0F80681E0080740
:100B800080E0180788F48FEFE816F10401051105DD
:100B900031F028F088E090E0A0E0B0E017C080E0FD
:100BA00090E0A0E0B0E012C080E0E81680E0F80637
:100BB00080E0080781E0180728F088E190E0A0E0D5
:100BC000B0E004C080E190E0A0E0B0E020E230E0DE
:100BD00040E050E0281B390B4A0B5B0B04C0169514
:100BE0000795F794E7948A95D2F7F701EC58FF4FF1
:100BF0008081281B310941095109C9011F910F91B9
:100C0000FF90EF900895DF92EF92FF920F931F9362
:100C1000FC01E480F58006811781D18080818230DB
:100C200048F480E090E0A0E1B0E0E82AF92A0A2B3D
:100C30001B2BA5C0843009F49FC0823021F4EE2420
:100C4000FF24870105C0E114F1040105110519F421
:100C5000E0E0F0E096C0628173819FEF623879072F
:100C60000CF05BC022E83FEF261B370B2A31310521
:100C70002CF020E030E040E050E02AC0B801A701AD
:100C8000022E04C076956795579547950A94D2F73A
:100C900081E090E0A0E0B0E004C0880F991FAA1F97
:100CA000BB1F2A95D2F70197A109B1098E219F2177
:100CB000A023B1230097A105B10521F081E090E0C8
:100CC000A0E0B0E09A01AB01282B392B4A2B5B2B1B
:100CD000DA01C9018F779070A070B07080349105EF
:100CE000A105B10539F427FF09C0205C3F4F4F4FE4
:100CF0005F4F04C0215C3F4F4F4F5F4FE0E0F0E09B
:100D00002030A0E03A07A0E04A07A0E45A0710F01C
:100D1000E1E0F0E079018A0127C06038710564F5EF
:100D2000FB01E158FF4FD801C7018F779070A07089
:100D3000B07080349105A105B10539F4E7FE0DC00E
:100D400080E490E0A0E0B0E004C08FE390E0A0E099
:100D5000B0E0E80EF91E0A1F1B1F17FF05C016950D
:100D60000795F794E794319687E016950795F794E1
:100D7000E7948A95D1F705C0EE24FF248701EFEFB1
:100D8000F0E06E2F679566276795902F9F77D79431
:100D9000DD24D7948E2F8695492F462B582F5D2919
:100DA000B701CA011F910F91FF90EF90DF90089556
:100DB000FC01DB01408151812281622F6F7770E05D
:100DC000221F2227221F9381892F880F822B282FF1
:100DD00030E0991F9927991F11969C93119721151F
:100DE0003105A9F5411551056105710511F482E040
:100DF00037C082E89FEF13969C938E9312979A01C7
:100E0000AB0167E0220F331F441F551F6A95D1F7CE
:100E100083E08C930DC0220F331F441F551F129681
:100E20008D919C911397019713969C938E93129793
:100E3000203080E0380780E0480780E4580758F306
:100E400014962D933D934D935C93179708952F3FE0
:100E5000310579F4411551056105710519F484E0F6
:100E60008C93089564FF03C081E08C9312C01C92A0
:100E700010C02F57304013963C932E93129783E067
:100E80008C9387E0440F551F661F771F8A95D1F713
:100E9000706414964D935D936D937C9317970895AA
:100EA0001F93DC01FB019C91923008F447C08081C4
:100EB000823008F443C0943051F411961C91843070
:100EC00099F58181682F70E0611B71093FC0843002
:100ED00021F0923031F48230B9F18181882389F197
:100EE0002DC011961C9111978230F1F08181181755
:100EF000D9F412962D913C91139782819381821798
:100F0000930794F028173907BCF014968D919D91A2
:100F10000D90BC91A02D24813581468157812817E1
:100F200039074A075B0718F4112341F00AC08217FA
:100F30009307A407B50740F4112319F061E070E0AE
:100F400005C06FEF7FEF02C060E070E0CB011F9142
:100F50000895DF93CF9300D000D000D0CDB7DEB797
:100F60008B836C838B818695869586958A838B810E
:100F7000877089838A81282F30E03E832D838D817D
:100F80009E818130910509F443C02D813E8122303C
:100F900031052CF48D819E81009771F0BCC02D81AC
:100FA0003E812230310509F45FC08D819E818330FE
:100FB000910509F485C0AFC08C818130A1F4ABE309
:100FC000B0E0EBE3F0E08081482F8981282F30E00A
:100FD00081E090E0022E02C0880F991F0A94E2F788
:100FE000842B8C9398C0ABE3B0E0EBE3F0E080811E
:100FF000482F8981282F30E081E090E0022E02C046
:10100000880F991F0A94E2F7809584238C9383C0FC
:101010008C818130A1F4A8E3B0E0E8E3F0E08081C6
:10102000482F8981282F30E081E090E0022E02C015
:10103000880F991F0A94E2F7842B8C936CC0A8E365
:10104000B0E0E8E3F0E08081482F8981282F30E08C
:1010500081E090E0022E02C0880F991F0A94E2F707
:10106000809584238C9357C08C818130A1F4A5E3B3
:10107000B0E0E5E3F0E08081482F8981282F30E05F
:1010800081E090E0022E02C0880F991F0A94E2F7D7
:10109000842B8C9340C0A5E3B0E0E5E3F0E08081D1
:1010A000482F8981282F30E081E090E0022E02C095
:1010B000880F991F0A94E2F7809584238C932BC0A4
:1010C0008C818130A1F4A2E3B0E0E2E3F0E0808122
:1010D000482F8981282F30E081E090E0022E02C065
:1010E000880F991F0A94E2F7842B8C9314C0A2E313
:1010F000B0E0E2E3F0E08081482F8981282F30E0E2
:1011000081E090E0022E02C0880F991F0A94E2F756
:10111000809584238C9326960FB6F894DEBF0FBE7D
:10112000CDBFCF91DF910895DF93CF9300D000D052
:1011300000D0CDB7DEB78C838C8186958695869559
:101140008B838C8187708A8319828B81282F30E072
:101150003E832D834D815E814130510541F18D816A
:101160009E818230910534F42D813E812115310517
:1011700061F052C04D815E814230510551F18D8147
:101180009E8183309105B9F147C0E9E3F0E08081A9
:10119000282F30E08A81882F90E0A90102C0559560
:1011A00047958A95E2F7CA018170898335C0E6E3E5
:1011B000F0E08081282F30E08A81882F90E0A9011B
:1011C00002C0559547958A95E2F7CA0181708983D7
:1011D00023C0E3E3F0E08081282F30E08A81882F6C
:1011E00090E0A90102C0559547958A95E2F7CA019A
:1011F0008170898311C0E0E3F0E08081282F30E026
:101200008A81882F90E0A90102C0559547958A955B
:10121000E2F7CA0181708983898126960FB6F89416
:10122000DEBF0FBECDBFCF91DF910895DF93CF9387
:1012300000D000D0CDB7DEB789836A838981282F9B
:1012400030E03C832B838B819C8181309105D1F0F0
:101250002B813C81223031052CF48B819C810097BD
:1012600061F01EC02B813C812230310581F08B81E1
:101270009C818330910581F013C0EBE3F0E08A811B
:1012800080830EC0E8E3F0E08A81808309C0E5E353
:10129000F0E08A81808304C0E2E3F0E08A81808309
:1012A0000F900F900F900F90CF91DF910895DF93E3
:1012B000CF9300D000D0CDB7DEB78A8319828A8160
:1012C000282F30E03C832B838B819C8181309105DA
:1012D000D1F02B813C81223031052CF48B819C8113
:1012E000009761F01EC02B813C812230310581F0D6
:1012F0008B819C818330910581F013C0EBE3F0E09A
:10130000808189830EC0E8E3F0E08081898309C091
:10131000E5E3F0E08081898304C0E2E3F0E08081CE
:10132000898389810F900F900F900F90CF91DF915B
:101330000895DF93CF9300D000D00F92CDB7DEB7E2
:101340001B821B82FCC08B818695869586958A833D
:101350008B81877089838A81282F30E03D832C839D
:101360008C819D818130910509F44BC02C813D8198
:10137000223031052CF48C819D81009771F0DCC006
:101380002C813D812230310509F46FC08C819D8113
:101390008330910509F49DC0CFC08B81882F90E0E8
:1013A000880F991FFC01EC58FE4F80818130A1F419
:1013B000AAE3B0E0EAE3F0E08081482F8981282F9A
:1013C00030E081E090E0022E02C0880F991F0A945D
:1013D000E2F7842B8C93B0C0AAE3B0E0EAE3F0E03C
:1013E0008081482F8981282F30E081E090E0022E13
:1013F00002C0880F991F0A94E2F7809584238C938A
:101400009BC08B81882F90E0880F991FFC01EC58BE
:10141000FE4F80818130A1F4A7E3B0E0E7E3F0E084
:101420008081482F8981282F30E081E090E0022ED2
:1014300002C0880F991F0A94E2F7842B8C937CC01A
:10144000A7E3B0E0E7E3F0E08081482F8981282F0F
:1014500030E081E090E0022E02C0880F991F0A94CC
:10146000E2F7809584238C9367C08B81882F90E06E
:10147000880F991FFC01EC58FE4F80818130A1F448
:10148000A4E3B0E0E4E3F0E08081482F8981282FD5
:1014900030E081E090E0022E02C0880F991F0A948C
:1014A000E2F7842B8C9348C0A4E3B0E0E4E3F0E0DF
:1014B0008081482F8981282F30E081E090E0022E42
:1014C00002C0880F991F0A94E2F7809584238C93B9
:1014D00033C08B81882F90E0880F991FFC01EC5856
:1014E000FE4F80818130A1F4A1E3B0E0E1E3F0E0C0
:1014F0008081482F8981282F30E081E090E0022E02
:1015000002C0880F991F0A94E2F7842B8C9314C0B1
:10151000A1E3B0E0E1E3F0E08081482F8981282F4A
:1015200030E081E090E0022E02C0880F991F0A94FB
:10153000E2F7809584238C938B818F5F8B838B81E3
:10154000803208F400CF0F900F900F900F900F9003
:10155000CF91DF910895DF93CF93CDB7DEB7A697F4
:101560000FB6F894DEBF0FBECDBF8AE060E00E94E8
:10157000A9078BE061E00E94A90780E090E0A0EA63
:10158000B1E48BA39CA3ADA3BEA36BA17CA18DA151
:101590009EA120E030E04AE755E40E949C02DC0175
:1015A000CB018F8F98A3A9A3BAA36F8D78A189A12E
:1015B0009AA120E030E040E85FE30E94A204882383
:1015C0002CF481E090E09E8F8D8F3FC06F8D78A1CD
:1015D00089A19AA120E03FEF4FE757E40E9442041F
:1015E00018164CF56BA17CA18DA19EA120E030E0E6
:1015F00040E251E40E949C02DC01CB01BC01CD0120
:101600000E94C600DC01CB019E8F8D8F0FC080E948
:1016100091E09C8F8B8F8B8D9C8D0197F1F79C8F28
:101620008B8F8D8D9E8D01979E8F8D8F8D8D9E8D35
:10163000009769F714C06F8D78A189A19AA10E94C3
:10164000C600DC01CB019E8F8D8F8D8D9E8D9A8F74
:10165000898F898D9A8D0197F1F79A8F898F83E30E
:101660000E94080C80E090E0A8ECB2E48D8B9E8B89
:10167000AF8BB88F6D897E898F89988D2BEA3AEA76
:101680004AEA50E40E949C02DC01CB01898B9A8BD0
:10169000AB8BBC8B69897A898B899C8920E030E08F
:1016A00040E85FE30E94A20488231CF481E0888B59
:1016B00091C069897A898B899C8920E030E04FE765
:1016C00053E40E94420418160CF07BC06D897E8999
:1016D0008F89988D20E030E04AE754E40E94960319
:1016E000DC01CB018C879D87AE87BF876C857D85AC
:1016F0008E859F8520E030E04AE755E40E949C02F9
:10170000DC01CB0188879987AA87BB8768857985A3
:101710008A859B8520E030E040E85FE30E94A204D8
:1017200088232CF481E090E09F838E833FC06885FE
:1017300079858A859B8520E03FEF4FE757E40E943B
:10174000420418164CF56C857D858E859F8520E0BA
:1017500030E040E251E40E949C02DC01CB01BC017C
:10176000CD010E94C600DC01CB019F838E830FC098
:1017700080E991E09D838C838C819D810197F1F7B5
:101780009D838C838E819F8101979F838E838E8121
:101790009F81009769F724C0688579858A859B8534
:1017A0000E94C600DC01CB019F838E838E819F81C6
:1017B0009B838A838A819B810197F1F79B838A832C
:1017C0000FC069897A898B899C890E94C600DC01D7
:1017D000CB01888B8889898389818A95F1F78983F0
:1017E00082E30E94080C88E20E94080C86E00E94B6
:1017F000080C8CE00E94080C81E00E94080CA69660
:101800000FB6F894DEBF0FBECDBFCF91DF91089524
:101810000F931F93DF93CF93CDB7DEB7CE54D04055
:101820000FB6F894DEBF0FBECDBFFE01E25BFF4FE7
:101830008083FE01E35BFF4F108289E060E00E943D
:10184000A90780E00E945709FE01E35BFF4F8083F8
:10185000FE01E35BFF4F8081982F9F70FE01E25BEA
:10186000FF4F8081807F892BFE01E35BFF4F8083E8
:10187000FE01E35BFF4F80E060810E9416098BE070
:1018800060E00E94A907FE01E75BFF4F80E090E067
:10189000A8ECB2E480839183A283B3838E010B5BB7
:1018A0001F4FFE01E75BFF4F608171818281938151
:1018B0002BEA3AEA4AEA50E40E949C02DC01CB019E
:1018C000F80180839183A283B383FE01EB5BFF4F1A
:1018D000608171818281938120E030E040E85FE3A4
:1018E0000E94A204882334F4FE01EC5BFF4F81E0E8
:1018F0008083A7C0FE01EB5BFF4F60817181828115
:10190000938120E030E04FE753E40E944204181630
:101910000CF087C0FE01E75BFF4F6081718182811F
:10192000938120E030E04AE754E40E949603DC0112
:10193000CB01FE01E05CFF4F80839183A283B383E0
:10194000FE01E05CFF4F608171818281938120E024
:1019500030E04AE755E40E949C02DC01CB018CAFE9
:101960009DAFAEAFBFAF6CAD7DAD8EAD9FAD20E096
:1019700030E040E85FE30E94A20488232CF481E079
:1019800090E09BAF8AAF42C06CAD7DAD8EAD9FAD98
:1019900020E03FEF4FE757E40E944204181664F539
:1019A000FE01E05CFF4F608171818281938120E0C4
:1019B00030E040E251E40E949C02DC01CB01BC011A
:1019C000CD010E94C600DC01CB019BAF8AAF0FC0E6
:1019D00080E991E099AF88AF88AD99AD0197F1F7B3
:1019E00099AF88AF8AAD9BAD01979BAF8AAF8AADA7
:1019F0009BAD009769F72EC06CAD7DAD8EAD9FADF0
:101A00000E94C600DC01CB019BAF8AAF8AAD9BADC3
:101A10009FAB8EAB8EA99FA90197F1F79FAB8EABC1
:101A200019C08E010C5B1F4FFE01EB5BFF4F608105
:101A30007181828193810E94C600DC01CB01F80193
:101A40008083FE01EC5BFF4F80818DAB8DA98A9571
:101A5000F1F78DAB8BE061E00E94A90780E090E098
:101A6000A0EAB0E489AB9AABABABBCAB69A97AA9ED
:101A70008BA99CA920E030E04AE755E40E949C0233
:101A8000DC01CB018DA79EA7AFA7B8AB6DA57EA546
:101A90008FA598A920E030E040E85FE30E94A2040F
:101AA00088232CF481E090E09CA78BA73FC06DA514
:101AB0007EA58FA598A920E03FEF4FE757E40E944D
:101AC000420418164CF569A97AA98BA99CA920E0B3
:101AD00030E040E251E40E949C02DC01CB01BC01F9
:101AE000CD010E94C600DC01CB019CA78BA70FC0D3
:101AF00080E991E09AA789A789A59AA50197F1F7AE
:101B00009AA789A78BA59CA501979CA78BA78BA5B6
:101B10009CA5009769F714C06DA57EA58FA598A90F
:101B20000E94C600DC01CB019CA78BA78BA59CA5BE
:101B300098A78FA38FA198A50197F1F798A78FA3D6
:101B400080E00E945709FE01E35BFF4F8083FE01A6
:101B5000E35BFF4F8081282F2F70FE01E25BFF4F78
:101B60008081882F90E082959295907F9827807F42
:101B70009827822BFE01E35BFF4F8083FE01E35B2E
:101B8000FF4F80E060810E9416098BE060E00E94B8
:101B9000A90780E090E0A8ECB2E48BA39CA3ADA3DE
:101BA000BEA36BA17CA18DA19EA12BEA3AEA4AEAD1
:101BB00050E40E949C02DC01CB018F8F98A3A9A363
:101BC000BAA36F8D78A189A19AA120E030E040E806
:101BD0005FE30E94A20488231CF481E08E8F91C0F1
:101BE0006F8D78A189A19AA120E030E04FE753E4FE
:101BF0000E94420418160CF07BC06BA17CA18DA141
:101C00009EA120E030E04AE754E40E949603DC0104
:101C1000CB018A8F9B8FAC8FBD8F6A8D7B8D8C8D16
:101C20009D8D20E030E04AE755E40E949C02DC01F3
:101C3000CB018E8B9F8BA88FB98F6E897F89888D02
:101C4000998D20E030E040E85FE30E94A204882301
:101C50002CF481E090E09D8B8C8B3FC06E897F8956
:101C6000888D998D20E03FEF4FE757E40E944204B2
:101C700018164CF56A8D7B8D8C8D9D8D20E030E0A3
:101C800040E251E40E949C02DC01CB01BC01CD0189
:101C90000E94C600DC01CB019D8B8C8B0FC080E9BC
:101CA00091E09B8B8A8B8A899B890197F1F79B8BAB
:101CB0008A8B8C899D8901979D8B8C8B8C899D89C2
:101CC000009769F724C06E897F89888D998D0E945D
:101CD000C600DC01CB019D8B8C8B8C899D89998BF7
:101CE000888B888999890197F1F7998B888B0FC028
:101CF0006F8D78A189A19AA10E94C600DC01CB0159
:101D00008E8F8E8D8F878F858A95F1F78F878BE0E9
:101D100061E00E94A90780E090E0A0E0B0E48B873A
:101D20009C87AD87BE876B857C858D859E8520E0F1
:101D300030E04AE755E40E949C02DC01CB018F832E
:101D40009887A987BA876F81788589859A8520E0E9
:101D500030E040E85FE30E94A20488232CF481E095
:101D600090E09E838D833FC06F81788589859A85B9
:101D700020E03FEF4FE757E40E94420418164CF56D
:101D80006B857C858D859E8520E030E040E251E4C6
:101D90000E949C02DC01CB01BC01CD010E94C60067
:101DA000DC01CB019E838D830FC080E991E09C8391
:101DB0008B838B819C810197F1F79C838B838D8131
:101DC0009E8101979E838D838D819E81009769F707
:101DD00014C06F81788589859A850E94C600DC01D0
:101DE000CB019E838D838D819E819A838983898196
:101DF0009A810197F1F79A838983C25BDF4F0FB60F
:101E0000F894DEBF0FBECDBFCF91DF911F910F9130
:101E100008950F931F93DF93CF93CDB7DEB7CE54C2
:101E2000D0400FB6F894DEBF0FBECDBFFE01E25B1F
:101E3000FF4F8083FE01E35BFF4F108289E061E08A
:101E40000E94A90780E00E945709FE01E35BFF4F53
:101E50008083FE01E35BFF4F8081982F9F70FE011E
:101E6000E25BFF4F8081807F892BFE01E35BFF4FA8
:101E70008083FE01E35BFF4F80E060810E941609D2
:101E80008BE060E00E94A907FE01E75BFF4F80E066
:101E900090E0A8ECB2E480839183A283B3838E01A7
:101EA0000B5B1F4FFE01E75BFF4F608171818281F9
:101EB00093812BEA3AEA4AEA50E40E949C02DC0150
:101EC000CB01F80180839183A283B383FE01EB5B96
:101ED000FF4F608171818281938120E030E040E892
:101EE0005FE30E94A204882334F4FE01EC5BFF4F01
:101EF00081E08083A7C0FE01EB5BFF4F60817181B1
:101F00008281938120E030E04FE753E40E94420455
:101F100018160CF087C0FE01E75BFF4F60817181EE
:101F20008281938120E030E04AE754E40E949603E6
:101F3000DC01CB01FE01E05CFF4F80839183A28333
:101F4000B383FE01E05CFF4F6081718182819381E8
:101F500020E030E04AE755E40E949C02DC01CB011E
:101F60008CAF9DAFAEAFBFAF6CAD7DAD8EAD9FAD55
:101F700020E030E040E85FE30E94A20488232CF4D4
:101F800081E090E09BAF8AAF42C06CAD7DAD8EAD7D
:101F90009FAD20E03FEF4FE757E40E944204181640
:101FA00064F5FE01E05CFF4F608171818281938165
:101FB00020E030E040E251E40E949C02DC01CB01D1
:101FC000BC01CD010E94C600DC01CB019BAF8AAFF2
:101FD0000FC080E991E099AF88AF88AD99AD0197C6
:101FE000F1F799AF88AF8AAD9BAD01979BAF8AAFF0
:101FF0008AAD9BAD009769F72EC06CAD7DAD8EADFF
:102000009FAD0E94C600DC01CB019BAF8AAF8AADB9
:102010009BAD9FAB8EAB8EA99FA90197F1F79FABAC
:102020008EAB19C08E010C5B1F4FFE01EB5BFF4FA7
:1020300060817181828193810E94C600DC01CB01A5
:10204000F8018083FE01EC5BFF4F80818DAB8DA991
:102050008A95F1F78DAB8BE061E00E94A90780E0E3
:1020600090E0A0EAB0E489AB9AABABABBCAB69A99A
:102070007AA98BA99CA920E030E04AE755E40E94A8
:102080009C02DC01CB018DA79EA7AFA7B8AB6DA5C5
:102090007EA58FA598A920E030E040E85FE30E948C
:1020A000A20488232CF481E090E09CA78BA73FC07A
:1020B0006DA57EA58FA598A920E03FEF4FE757E4D7
:1020C0000E94420418164CF569A97AA98BA99CA90B
:1020D00020E030E040E251E40E949C02DC01CB01B0
:1020E000BC01CD010E94C600DC01CB019CA78BA7DF
:1020F0000FC080E991E09AA789A789A59AA50197C1
:10210000F1F79AA789A78BA59CA501979CA78BA7F8
:102110008BA59CA5009769F714C06DA57EA58FA51A
:1021200098A90E94C600DC01CB019CA78BA78BA5B8
:102130009CA598A78FA38FA198A50197F1F798A7C1
:102140008FA380E00E945709FE01E35BFF4F80836D
:10215000FE01E35BFF4F8081282F2F70FE01E25BC1
:10216000FF4F8081882F90E082959295907F9827ED
:10217000807F9827822BFE01E35BFF4F8083FE0167
:10218000E35BFF4F80E060810E9416098BE060E016
:102190000E94A90780E090E0A8ECB2E48BA39CA386
:1021A000ADA3BEA36BA17CA18DA19EA12BEA3AEAAF
:1021B0004AEA50E40E949C02DC01CB018F8F98A375
:1021C000A9A3BAA36F8D78A189A19AA120E030E0DC
:1021D00040E85FE30E94A20488231CF481E08E8F14
:1021E00091C06F8D78A189A19AA120E030E04FE7DE
:1021F00053E40E94420418160CF07BC06BA17CA132
:102200008DA19EA120E030E04AE754E40E949603AD
:10221000DC01CB018A8F9B8FAC8FBD8F6A8D7B8D4C
:102220008C8D9D8D20E030E04AE755E40E949C02B1
:10223000DC01CB018E8B9F8BA88FB98F6E897F8934
:10224000888D998D20E030E040E85FE30E94A20491
:1022500088232CF481E090E09D8B8C8B3FC06E89AD
:102260007F89888D998D20E03FEF4FE757E40E94EA
:10227000420418164CF56A8D7B8D8C8D9D8D20E067
:1022800030E040E251E40E949C02DC01CB01BC0141
:10229000CD010E94C600DC01CB019D8B8C8B0FC051
:1022A00080E991E09B8B8A8B8A899B890197F1F762
:1022B0009B8B8A8B8C899D8901979D8B8C8B8C89BC
:1022C0009D89009769F724C06E897F89888D998DD3
:1022D0000E94C600DC01CB019D8B8C8B8C899D8973
:1022E000998B888B888999890197F1F7998B888BCD
:1022F0000FC06F8D78A189A19AA10E94C600DC0150
:10230000CB018E8F8E8D8F878F858A95F1F78F8782
:102310008BE061E00E94A90780E090E0A0E0B0E4DB
:102320008B879C87AD87BE876B857C858D859E85D9
:1023300020E030E04AE755E40E949C02DC01CB013A
:102340008F839887A987BA876F81788589859A85D1
:1023500020E030E040E85FE30E94A20488232CF4F0
:1023600081E090E09E838D833FC06F817885898571
:102370009A8520E03FEF4FE757E40E944204181689
:102380004CF56B857C858D859E8520E030E040E2B4
:1023900051E40E949C02DC01CB01BC01CD010E94F2
:1023A000C600DC01CB019E838D830FC080E991E0E4
:1023B0009C838B838B819C810197F1F79C838B831A
:1023C0008D819E8101979E838D838D819E81009753
:1023D00069F714C06F81788589859A850E94C60047
:1023E000DC01CB019E838D838D819E819A838983BD
:1023F00089819A810197F1F79A838983C25BDF4FC4
:102400000FB6F894DEBF0FBECDBFCF91DF911F9105
:102410000F910895DF93CF9300D00F92CDB7DEB721
:102420009B838A8319820EC08981282F30E08A819C
:102430009B81FC01E20FF31F80810E94090F8981BB
:102440008F5F89838981282F30E08A819B81FC01FD
:10245000E20FF31F8081882339F70F900F900F90C0
:10246000CF91DF910895DF93CF9300D000D0CDB707
:10247000DEB789836A838981282F30E03C832B83F0
:102480008B819C818130910531F02B813C81223000
:10249000310539F00BC08A818F7080680E94080C6A
:1024A00005C08A818F70806C0E94080C0F900F907D
:1024B0000F900F90CF91DF910895DF93CF9300D0CD
:1024C00000D0CDB7DEB78A837C836B8319828A8183
:1024D0008830F8F48A81882F90E00896880F991F39
:1024E000880F991F880F991F0E94080C19820EC02F
:1024F0008981282F30E08B819C81FC01E20FF31F42
:1025000080810E94090F89818F5F8983898188304A
:1025100078F30F900F900F900F90CF91DF91089567
:10252000EF92FF920F931F93DF93CF93CDB7DEB758
:10253000A0970FB6F894DEBF0FBECDBF7894ECE441
:10254000F0E0118210821092BC011092BD01109235
:10255000BE011092BF01EFE4F0E01082AEE4B0E003
:10256000EEE4F0E0808182648C93A9E5B0E0E9E5D7
:10257000F0E0808184608C93A8E5B0E0E8E5F0E0CD
:10258000808184608C93A8E5B0E0E8E5F0E080818C
:1025900080628C9380E061E00E94A90780E090E077
:1025A000A0E2B1E48D8B9E8BAF8BB88F6D897E8955
:1025B0008F89988D2BEA3AEA4AEA50E40E949C02FD
:1025C000DC01CB01898B9A8BAB8BBC8B69897A89B7
:1025D0008B899C8920E030E040E85FE30E94A20400
:1025E00088231CF481E0888B91C069897A898B8962
:1025F0009C8920E030E04FE753E40E944204181623
:102600000CF07BC06D897E898F89988D20E030E049
:102610004AE754E40E949603DC01CB018C879D8736
:10262000AE87BF876C857D858E859F8520E030E0F5
:102630004AE755E40E949C02DC01CB018887998718
:10264000AA87BB87688579858A859B8520E030E0ED
:1026500040E85FE30E94A20488232CF481E090E02C
:102660009F838E833FC0688579858A859B8520E01E
:102670003FEF4FE757E40E94420418164CF56C8573
:102680007D858E859F8520E030E040E251E40E9408
:102690009C02DC01CB01BC01CD010E94C600DC0123
:1026A000CB019F838E830FC080E991E09D838C8353
:1026B0008C819D810197F1F79D838C838E819F8111
:1026C00001979F838E838E819F81009769F724C035
:1026D000688579858A859B850E94C600DC01CB01CF
:1026E0009F838E838E819F819B838A838A819B8136
:1026F0000197F1F79B838A830FC069897A898B8957
:102700009C890E94C600DC01CB01888B8889898363
:1027100089818A95F1F7898380E060E00E94A907AA
:10272000E8E5F0E08081882F90E08072907000975B
:10273000B9F3ECE4F0E0118210821092BC01109227
:10274000BD011092BE011092BF01AEE4B0E0EEE414
:10275000F0E080818F7B8C93A8E5B0E0E8E5F0E0C5
:10276000808184608C93A8E5B0E0E8E5F0E08081AA
:1027700080628C93E8E5F0E08081882F90E08072A1
:1027800090700097B9F3E6E4F0E0808191817C01DC
:1027900000E010E08091BC019091BD01A091BE01CC
:1027A000B091BF012FEF3FEF40E050E0BC01CD0101
:1027B0000E94CE17DC01CB018E0D9F1DA01FB11F03
:1027C0008D8F9E8FAF8FB8A36D8D7E8D8F8D98A1CD
:1027D0000E940205DC01CB01BC01CD0128E23EE7ED
:1027E0004CE05CE30E949C02DC01CB01898F9A8F54
:1027F000AB8FBC8F898D9A8DAB8DBC8DBC01CD010B
:10280000A0960FB6F894DEBF0FBECDBFCF91DF917B
:102810001F910F91FF90EF9008950F931F93DF93F7
:10282000CF93CDB7DEB7E3970FB6F894DEBF0FBEF8
:10283000CDBF0E9499090E94AB0A80E090E0A0E021
:10284000B0E08B839C83AD83BE83A1E3B0E0E1E382
:10285000F0E0808180688C93E5E4F0E08CE6808392
:10286000E3E4F0E08FEF80831A821982CE0185962F
:1028700098AB8FA7E4EBF1E0FAABE9ABF8E0FBAB88
:10288000E9A9FAA9008089A99AA901969AAB89AB0E
:10289000EFA5F8A900828FA598A9019698AB8FA7FC
:1028A0009BA991509BABEBA9EE2351F7A1E3B0E0BC
:1028B000E1E3F0E0808180628C93A4E3B0E0E4E3A4
:1028C000F0E0808180668C93A4E3B0E0E4E3F0E084
:1028D000808188618C93EFE4F0E082E88083EEE40D
:1028E000F0E088E18083EAE4F0E088EE93E0918311
:1028F0008083E6E4F0E08FEF9FEF9183808389810E
:102900009A819C01220F331FCE010196820F931FE3
:10291000FC01B49680819181AA2797FDA095BA2FDA
:10292000BC01CD010E94181589819A8183309105DF
:1029300021F48FEF9FEF9A83898389819A81019691
:102940009A8389830E949012DC01CB018B839C8344
:10295000AD83BE838B819C81AD81BE81FE013796A4
:10296000BC01CD0142E022E08F010E94611881E0AC
:102970000E94080C80E690E00E940A12CE010796A1
:102980000E940A126B817C818D819E8120E030E063
:1029900040EA51E40E94D20418160CF4B0CF1EA6EF
:1029A00089819A81009711F4F1E0FEA71DA6898123
:1029B0009A818D32910511F481E08DA78EA59DA598
:1029C000892B882329F00E94F2150E949A1697CF2E
:1029D0000E94F2150E94341792CF1F920F920FB6E9
:1029E0000F9211248F939F93AF93BF93DF93CF9355
:1029F000CDB7DEB78091BC019091BD01A091BE0121
:102A0000B091BF010196A11DB11D8093BC019093AF
:102A1000BD01A093BE01B093BF01CF91DF91BF91E3
:102A2000AF919F918F910F900FBE0F901F901895AF
:102A30000F931F93DF93CF9300D000D0CDB7DEB7B5
:102A400069837A838B839C8303E410E089819A8174
:102A5000AB81BC812AEF30E040E050E0BC01CD0109
:102A60000E94CE17DC01CB0124EB30E040E050E0C7
:102A7000BC01CD010E94ED17DA01C9018750F801B0
:102A800080830F900F900F900F90CF91DF911F9147
:102A90000F910895DF93CF93CDB7DEB72E970FB682
:102AA000F894DEBF0FBECDBFA5E3B0E0E5E3F0E0F4
:102AB000808180628C93A5E3B0E0E5E3F0E0808163
:102AC0008F7B8C93A5E3B0E0E5E3F0E08081886044
:102AD0008C93A5E3B0E0E5E3F0E080818F7E8C93FA
:102AE00080E090E0AAEFB3E48B879C87AD87BE8738
:102AF0006B857C858D859E8520E030E04AE755E436
:102B00000E949C02DC01CB018F839887A987BA873A
:102B10006F81788589859A8520E030E040E85FE321
:102B20000E94A20488232CF481E090E09E838D8390
:102B30003FC06F81788589859A8520E03FEF4FE718
:102B400057E40E94420418164CF56B857C858D85F0
:102B50009E8520E030E040E251E40E949C02DC01CE
:102B6000CB01BC01CD010E94C600DC01CB019E83DC
:102B70008D830FC080E991E09C838B838B819C8146
:102B80000197F1F79C838B838D819E8101979E83B2
:102B90008D838D819E81009769F714C06F81788540
:102BA00089859A850E94C600DC01CB019E838D83B6
:102BB0008D819E819A83898389819A810197F1F71A
:102BC0009A838983A5E3B0E0E5E3F0E0808187782C
:102BD0008C932E960FB6F894DEBF0FBECDBFCF916B
:102BE000DF910895DF93CF93CDB7DEB72E970FB661
:102BF000F894DEBF0FBECDBFA5E3B0E0E5E3F0E0A3
:102C0000808180648C93A5E3B0E0E5E3F0E080810F
:102C10008F7D8C93A5E3B0E0E5E3F0E080818061F7
:102C20008C93A5E3B0E0E5E3F0E08081877F8C93AF
:102C300080E090E0AAEFB3E48B879C87AD87BE87E6
:102C40006B857C858D859E8520E030E04AE755E4E4
:102C50000E949C02DC01CB018F839887A987BA87E9
:102C60006F81788589859A8520E030E040E85FE3D0
:102C70000E94A20488232CF481E090E09E838D833F
:102C80003FC06F81788589859A8520E03FEF4FE7C7
:102C900057E40E94420418164CF56B857C858D859F
:102CA0009E8520E030E040E251E40E949C02DC017D
:102CB000CB01BC01CD010E94C600DC01CB019E838B
:102CC0008D830FC080E991E09C838B838B819C81F5
:102CD0000197F1F79C838B838D819E8101979E8361
:102CE0008D838D819E81009769F714C06F817885EF
:102CF00089859A850E94C600DC01CB019E838D8365
:102D00008D819E819A83898389819A810197F1F7C8
:102D10009A838983A5E3B0E0E5E3F0E080818778DA
:102D20008C932E960FB6F894DEBF0FBECDBFCF9119
:102D3000DF910895DF93CF93CDB7DEB72E970FB60F
:102D4000F894DEBF0FBECDBFA5E3B0E0E5E3F0E051
:102D5000808188608C93A5E3B0E0E5E3F0E08081BA
:102D60008F7E8C9380E090E0AAEFB3E48B879C8702
:102D7000AD87BE876B857C858D859E8520E030E0A4
:102D80004AE755E40E949C02DC01CB018F839887BF
:102D9000A987BA876F81788589859A8520E030E098
:102DA00040E85FE30E94A20488232CF481E090E0D5
:102DB0009E838D833FC06F81788589859A8520E0C9
:102DC0003FEF4FE757E40E94420418164CF56B851D
:102DD0007C858D859E8520E030E040E251E40E94B4
:102DE0009C02DC01CB01BC01CD010E94C600DC01CC
:102DF000CB019E838D830FC080E991E09C838B8300
:102E00008B819C810197F1F79C838B838D819E81BF
:102E100001979E838D838D819E81009769F714C0F1
:102E20006F81788589859A850E94C600DC01CB0177
:102E30009E838D838D819E819A83898389819A81E6
:102E40000197F1F79A838983A5E3B0E0E5E3F0E029
:102E5000808187788C932E960FB6F894DEBF0FBED4
:102E6000CDBFCF91DF910895DF93CF93CDB7DEB77C
:102E70002E970FB6F894DEBF0FBECDBFA5E3B0E02E
:102E8000E5E3F0E0808180628C93A5E3B0E0E5E3C8
:102E9000F0E080818F7B8C9380E090E0AAEFB3E438
:102EA0008B879C87AD87BE876B857C858D859E854E
:102EB00020E030E04AE755E40E949C02DC01CB01AF
:102EC0008F839887A987BA876F81788589859A8546
:102ED00020E030E040E85FE30E94A20488232CF465
:102EE00081E090E09E838D833FC06F8178858985E6
:102EF0009A8520E03FEF4FE757E40E9442041816FE
:102F00004CF56B857C858D859E8520E030E040E228
:102F100051E40E949C02DC01CB01BC01CD010E9466
:102F2000C600DC01CB019E838D830FC080E991E058
:102F30009C838B838B819C810197F1F79C838B838E
:102F40008D819E8101979E838D838D819E810097C7
:102F500069F714C06F81788589859A850E94C600BB
:102F6000DC01CB019E838D838D819E819A83898331
:102F700089819A810197F1F79A838983A5E3B0E06B
:102F8000E5E3F0E0808187788C932E960FB6F89475
:102F9000DEBF0FBECDBFCF91DF910895629FD001FC
:102FA000739FF001829FE00DF11D649FE00DF11D04
:102FB000929FF00D839FF00D749FF00D659FF00DB3
:102FC0009927729FB00DE11DF91F639FB00DE11DA0
:102FD000F91FBD01CF011124089597FB092E052685
:102FE0000ED057FD04D014D00AD0001C38F45095F0
:102FF0004095309521953F4F4F4F5F4F0895F6F71D
:1030000090958095709561957F4F8F4F9F4F089554
:10301000A1E21A2EAA1BBB1BFD010DC0AA1FBB1FDC
:10302000EE1FFF1FA217B307E407F50720F0A21B4E
:10303000B30BE40BF50B661F771F881F991F1A94BB
:1030400069F760957095809590959B01AC01BD01E5
:10305000CF0108952F923F924F925F926F927F928D
:103060008F929F92AF92BF92CF92DF92EF92FF9298
:103070000F931F93CF93DF93CDB7DEB7CA1BDB0B44
:103080000FB6F894DEBF0FBECDBF09942A883988E9
:1030900048885F846E847D848C849B84AA84B984F0
:1030A000C884DF80EE80FD800C811B81AA81B981FC
:1030B000CE0FD11D0FB6F894DEBF0FBECDBFED0110
:1030C0000895EF92FF920F931F93F22FF02E47FD7A
:1030D00002C0E4E001C0E4E1242F332727FD30954E
:1030E00037FF03C0309521953F4F4F2D512F0F2FA4
:1030F000EE2E0E9482188F2D912F1F910F91FF901D
:10310000EF900895A9E0B0E0E8E8F8E10C942E18FB
:103110006A01122FA02EBE2C2BE3201718F42CE3EB
:10312000922E02C0902E9394AE014F5F5F4F27E026
:10313000092D0E94E419BC018981E82EFF24C701F2
:1031400089709070019711F4ADE209C0B1FE02C020
:10315000ABE205C0B0FC02C0A0E001C0A0E2E3FE0B
:103160003BC0AA2311F423E001C024E0211710F092
:1031700020E002C0121B212FEB2CB4FE02C0322F24
:103180000AC0F601322F80E202C08193315033230E
:10319000E1F7C20ED11CAA2319F0F601A1936F0129
:1031A000F6013196E2FE05C09EE4D6019C9381E4CF
:1031B00004C09EE6D6019C9381E611968C93918380
:1031C0003296DF01832F90E202C09D9381508823C5
:1031D000E1F7E30FF11D40C0E2FE42C0AA2311F463
:1031E00023E001C024E0211710F020E002C0121BF0
:1031F000212FEB2CB4FE02C0922F0AC0F601922FB1
:1032000080E202C0819391509923E1F7C20ED11C54
:10321000AA2319F0F601A1936F01F6013196E2FE9F
:1032200008C089E4D6018C938EE411968C9386E4D1
:1032300007C089E6D6018C938EE611968C9386E6BC
:1032400081833296DF01892F20E202C02D938150C5
:103250008823E1F7E90FF11D10822EEF3FEFAFC099
:10326000161617061CF041E050E003C0AB014F5F9B
:103270005F4FAA2019F480E090E003C08A2D90E00F
:10328000019620E030E0AA2311F021E030E0240F85
:10329000351F280F391F812F90E02817390714F0A8
:1032A00020E002C0121B212F4B2D50E0CA0180717B
:1032B0009070B4FC0DC0B3FC0BC0F601322F40E29D
:1032C00002C0419331503323E1F7C20ED11C01C03B
:1032D000322FAA2319F0F601A1936F01892B11F067
:1032E000132F0AC0F601132F80E302C081931150FF
:1032F0001123E1F7C30ED11C092D060FBA8090E10E
:10330000892E912C8E209F20E4FE04C0F1E3BF168D
:1033100009F40150101614F001E003C0093008F060
:1033200008E09B0177FF02C020E030E0CB0101966E
:10333000821B930BFE013196E80FF91F8EE2F82EE7
:103340003B01601A71088A2D90E044275527481BDD
:10335000590B8FEF2F3F380719F4D601FD926D01FD
:10336000621773072CF06216730614F4808101C093
:1033700080E32150304031962417350724F0D601E0
:103380008D936D01E6CF2617370749F4B5E3BB15DA
:1033900028F0BB1621F48114910409F481E3F601AD
:1033A0008193D601812F90E202C09C9381501196A7
:1033B0008823D9F7E10FF11D108220E030E0C90128
:1033C0002996EEE00C944A18283008F027E03327BD
:1033D000DA01990F311D87FD916000966105710535
:1033E00039F432602E5F3D9330E32A95E1F708957A
:1033F0009F3F30F080387105610509F03C5F3C5F0C
:103400003D93913008F08068911DDF93CF931F9317
:103410000F93FF92EF92192F987F9695E92F96952B
:103420009695E90FFF27E255FF4F99273327EE24A2
:10343000FF24A701E70105900894079428F4360FAC
:10344000E71EF81E491F511D660F771F881F991F21
:103450000694A1F70590079428F4E70EF81E491F7B
:10346000561FC11D770F881F991F661F0694A1F76D
:103470000590079428F4F80E491F561FC71FD11D49
:10348000880F991F661F771F0694A1F70590079470
:1034900020F4490F561FC71FD81F990F661F771FAB
:1034A000881F0694A9F784911095177041F0D6955E
:1034B000C79557954795F794E7941A95C1F7E4E5B2
:1034C000F0E068941590159135916591959105906E
:1034D0007FE27395E118F10A430B560BC90BD00933
:1034E000C0F7E10CF11E431F561FC91FD01D7EF40B
:1034F000703311F48A95E6CFE894015030F0080F4C
:103500000AF40027021708F4202F2395022F7A339C
:1035100028F079E37D932A95E9F710C07D932A95E9
:1035200089F6069497956795379517951794E1183E
:10353000F10A430B560BC90BD00998F023957E91E5
:1035400073957A3308F070E37C932013B8F77E917B
:1035500070617D9330F0839571E37D9370E32A95DC
:10356000E1F71124EF90FF900F911F91CF91DF9120
:0C357000992787FD90950895F894FFCFEF
:10357C0044697374616E6365203D20000000000097
:10358C00000000000001020203030303040404040E
:10359C0004040404050505050505050505050505D3
:1035AC0005050505060606060606060606060606B3
:1035BC00060606060606060606060606060606069F
:1035CC000606060607070707070707070707070783
:1035DC00070707070707070707070707070707076F
:1035EC00070707070707070707070707070707075F
:1035FC00070707070707070707070707070707074F
:10360C000707070708080808080808080808080832
:10361C00080808080808080808080808080808081E
:10362C00080808080808080808080808080808080E
:10363C0008080808080808080808080808080808FE
:10364C0008080808080808080808080808080808EE
:10365C0008080808080808080808080808080808DE
:10366C0008080808080808080808080808080808CE
:10367C0008080808080808080808080808080808BE
:10368C000808080801010101010101010101010102
:10369C00010101010101010101010101010101010E
:1036AC0001010101010101010101010101010101FE
:1036BC0001010101010101010101010100000000F2
:0C36CC000001000000002D005A00B400B6
:00000001FF
